:020000040800F2
:100000000028002099190008951600089D16000880
:10001000A5160008AD160008B5160008000000007F
:10002000000000000000000000000000BD160008F5
:10003000C916000800000000D5160008E1160008E7
:10004000E1190008E1190008E1190008E1190008A8
:10005000E1190008E1190008E1190008E119000898
:10006000E1190008E1190008E1190008E119000888
:10007000E1190008E1190008E1190008E119000878
:10008000E1190008E1190008E1190008E119000868
:10009000E1190008E1190008E1190008E119000858
:1000A000E1190008E1190008E1190008E119000848
:1000B000ED1600080117000800000000E119000813
:1000C000E11900080000000000000000E11900082C
:1000D00000000000E1190008E1190008000000001C
:1000E000E1190008E1190008E1190008000000000A
:1000F0000000000000000000000000000000000000
:0C01000000000000000000005FF808F1A3
:10010C0010B5054C237833B9044B13B10448AFF345
:10011C0000800123237010BD94000020000000001B
:10012C005432000808B5034B1BB103490348AFF325
:10013C00008008BD00000000980000205432000828
:10014C0080B500AF7A4B1B78042B00F2C58101A25D
:10015C0052F823F075010008B3010008770200087B
:10016C006103000823040008714B01221A70714BC3
:10017C001B781A46704B1A80704B1B781A46704BC2
:10018C001A806C4B1B781A46920013441A46910045
:10019C001A460B4613449B009AB26A4B1A806A4B60
:1001AC0064221A80A1E100F0DFF9674B1B88002B59
:1001BC0005D0654B1B88013B9AB2634B1A80614B8F
:1001CC001B88002B05D05F4B1B88013B9AB25D4B03
:1001DC001A805D4B1B88002B16D1574B1B88002BAC
:1001EC0005D0554B1B88013B9AB2534B1A80544B8C
:1001FC001B88002B05D0524B1B88013B9AB2504BED
:10020C001A80514B64221A804E4B1B88002B1DD137
:10021C00474B02221A704D4B1B781A46464B1A80DC
:10022C004A4B1B781A46464B1A80484B1B781A4689
:10023C00920013441A4691001A460B4613449B0035
:10024C009AB2404B1A80404B64221A80404800F00E
:10025C0084FA0346002B00F0418100F05BF9344B2B
:10026C0005221A7000F00AFC38E100F0A7F9364BB1
:10027C001B88002B05D0344B1B88013B9AB2324BA8
:10028C001A80304B1B88002B05D02E4B1B88013B52
:10029C009AB22C4B1A802C4B1B88002B16D1264B58
:1002AC001B88002B05D0244B1B88013B9AB2224B98
:1002BC001A80234B1B88002B05D0214B1B88013B3C
:1002CC009AB21F4B1A80204B64221A801D4B1B883C
:1002DC00002B1DD1164B03221A70184B1B781A4693
:1002EC00154B1A80134B1B781A46154B1A80114B61
:1002FC001B781A46920013441A4691001A460B4674
:10030C0013449B009AB20F4B1A800F4B64221A8035
:10031C000F4800F022FA0346002B00F0E18000F0B9
:10032C00F9F8034B05221A7000F0A8FBD8E000BFC7
:10033C00B400002001000020B000002000000020CC
:10034C00B2000020B6000020B800002002000020FF
:10035C000400002000F05CF9654B1B88002B05D0D5
:10036C00634B1B88013B9AB2614B1A80614B1B8813
:10037C00002B05D05F4B1B88013B9AB25D4B1A805A
:10038C005B4B1B88002B16D15B4B1B88002B05D0BD
:10039C00594B1B88013B9AB2574B1A80574B1B8801
:1003AC00002B05D0554B1B88013B9AB2534B1A803E
:1003BC004F4B64221A804F4B1B88002B1DD1504B86
:1003CC0004221A704F4B1B781A464B4B1A804D4B1C
:1003DC001B781A46494B1A804A4B1B781A469200D6
:1003EC0013441A4691001A460B4613449B009AB2CA
:1003FC00404B1A803E4B64221A80434800F0ADF902
:10040C000346002B6ED000F085F83D4B05221A7088
:10041C0000F034FB66E000F025F9354B1B88002B0F
:10042C0005D0334B1B88013B9AB2314B1A80314BB0
:10043C001B88002B05D02F4B1B88013B9AB22D4BF0
:10044C001A802B4B1B88002B16D12B4B1B88002B97
:10045C0005D0294B1B88013B9AB2274B1A80274B9E
:10046C001B88002B05D0254B1B88013B9AB2234BD4
:10047C001A801F4B64221A801E4B1B88002B1DD127
:10048C001F4B01221A70214B1B781A461A4B1A80EB
:10049C001F4B1B781A46194B1A801C4B1B781A469B
:1004AC00920013441A4691001A460B4613449B00C3
:1004BC009AB2104B1A800E4B64221A80124800F02C
:1004CC004CF90346002B0FD000F024F80C4B0522FE
:1004DC001A7000F0D3FA07E000BF06E000BF04E09A
:1004EC0000BF02E000BF00E000BF00BF80BD00BF46
:1004FC00B8000020B6000020B0000020B2000020A0
:10050C00B4000020020000200400002001000020A4
:10051C000000002080B500AF01224FF4807111481B
:10052C0001F05DFD01224FF400710E4801F057FD02
:10053C0001224FF480610B4801F051FD01224FF470
:10054C000061084801F04BFD01224FF48051054831
:10055C0001F045FD01224FF40051024801F03FFD2E
:10056C0000BF80BD000C014080B500AF01224FF4EC
:10057C008071114801F033FD01224FF400710E48D7
:10058C0001F02DFD00224FF480610B4801F027FD96
:10059C0000224FF40061084801F021FD01224FF4C4
:1005AC008051054801F01BFD01224FF40051024817
:1005BC0001F015FD00BF80BD000C014080B500AFFF
:1005CC0001224FF48071114801F009FD00224FF413
:1005DC0000710E4801F003FD01224FF480610B48BD
:1005EC0001F0FDFC00224FF40061084801F0F7FC1B
:1005FC0001224FF48051054801F0F1FC01224FF427
:10060C000051024801F0EBFC00BF80BD000C014022
:10061C0080B500AF00224FF48071114801F0DFFC6F
:10062C0001224FF400710E4801F0D9FC01224FF465
:10063C0080610B4801F0D3FC01224FF400610848A3
:10064C0001F0CDFC01224FF48051054801F0C7FCAC
:10065C0000224FF40051024801F0C1FC00BF80BDE4
:10066C00000C014080B500AF00224FF4807111489E
:10067C0001F0B5FC01224FF400710E4801F0AFFC03
:10068C0001224FF480610B4801F0A9FC01224FF4C8
:10069C000061084801F0A3FC00224FF4805105488A
:1006AC0001F09DFC01224FF40051024801F097FC2F
:1006BC0000BF80BD000C014080B582B000AF7860F7
:1006CC007B685A787B689A707B681A787B685A705A
:1006DC007B689A687B689B891946104601F068FC18
:1006EC0003461A467B681A707B681A787B685B78BD
:1006FC009A422ED17B685A787B689B789A4228D193
:10070C007B689A787B68DB789A420ED07B689A7803
:10071C007B68DA707B68DB78002B1AD17B689622B9
:10072C009A807B6801229A7113E07B689B88013B5D
:10073C009AB27B689A807B689B88002B09D17B6876
:10074C0096229A807B68DB78002B02D17B68012291
:10075C00DA7100BF0837BD4680BD80B483B000AFEE
:10076C0078607B689B79012B04D17B6800229A719D
:10077C00012300E0002318460C37BD4680BC7047AF
:10078C0080B483B000AF0346FB710B46BB711346BC
:10079C007B71FA79BB799A4201D2BB7906E0FA797E
:1007AC007B799A4201D97B7900E0FB7918460C37AA
:1007BC00BD4680BC7047000080B500AF00224FF4EE
:1007CC008071114801F00BFC01224FF400710E48AE
:1007DC0001F005FC01224FF480610B4801F0FFFB96
:1007EC0000224FF40061084801F0F9FB01224FF49C
:1007FC008051054801F0F3FB01224FF400510248EF
:10080C0001F0EDFB00BF80BD000C014080B500AFD6
:10081C0001224FF48071114801F0E1FB00224FF4EA
:10082C0000710E4801F0DBFB01224FF480610B4894
:10083C0001F0D5FB01224FF40061084801F0CFFB19
:10084C0000224FF48051054801F0C9FB01224FF4FE
:10085C000051024801F0C3FB00BF80BD000C0140F9
:10086C0080B500AF01224FF48071114801F0B7FB45
:10087C0001224FF400710E4801F0B1FB00224FF43D
:10088C0080610B4801F0ABFB01224FF4006108487A
:10089C0001F0A5FB01224FF48051054801F09FFBAC
:1008AC0000224FF40051024801F099FB00BF80BDBB
:1008BC00000C014080B582B000AF1C4B1B7863224A
:1008CC0001211846FFF75CFF03461A46174B1A70B6
:1008DC00164B1A78164B1B78D31ADBB2FB7197F9AF
:1008EC000730002B01DC0123FB7197F90730632BD8
:1008FC0001DD6323FB71FA790E4B1A700D4B1A78DC
:10090C000B4B1B781344DAB20B4B1A700A4B1B7847
:10091C00632201211846FFF733FF03461A46064BA4
:10092C001A7000BF0837BD4680BD00BFBA0000205A
:10093C0002000020010000200000002080B582B0E1
:10094C0000AF1C4B1B78632201211846FFF718FFE0
:10095C0003461A46174B1A70174B1A78154B1B780F
:10096C00D31AFB71FB79002B01D10123FB71FB79AD
:10097C00632B01D96323FB71104AFB7913700F4B66
:10098C001A780C4B1B781344DAB20B4B1A700A4BC7
:10099C001B78632201211846FFF7F2FE03461A4624
:1009AC00054B1A70034B1A78054B1A7000BF0837A9
:1009BC00BD4680BDBB0000200000002001000020CF
:1009CC000200002080B582B000AF284B1B78632258
:1009DC0001211846FFF7D4FE03461A46234B1A7022
:1009EC00224B1A78224B1B781344FB71FB79632B37
:1009FC0016D9204B63221A701E4B1A781C4B1B788D
:100A0C00D31ADAB21C4B1A701B4B1B7863220121D0
:100A1C001846FFF7B5FE03461A46174B1A7020E02E
:100A2C00FB79002B16D1134B01221A70114B1A783B
:100A3C000F4B1B78D31ADAB20F4B1A700E4B1B7874
:100A4C00632201211846FFF79BFE03461A460A4B08
:100A5C001A7006E0054B1A78074B1A70054AFB7999
:100A6C00137000BF0837BD4680BD00BFBC0000201E
:100A7C0002000020000000200100002080B500AF23
:100A8C00094B1A78094B1A70FFF796FE084B4FF476
:100A9C00FA721A80054B1B781A46064B1A80064BC5
:100AAC0002221A8000BF80BD00000020BA00002086
:100ABC00BE000020B0000020B200002080B500AFC6
:100ACC000E4B1B88002B05D00C4B1B88013B9AB29C
:100ADC000A4B1A80094B1B88002B0DD14FF48071E7
:100AEC00074801F094FA4FF40061054801F08FFAC1
:100AFC00024B4FF4FA721A8000BF80BDBE0000207A
:100B0C00000C014080B500AF094B1A78094B1A70E4
:100B1C00FFF77CFE084B4FF4FA721A80054B1B78DA
:100B2C001A46064B1A80064B03221A8000BF80BD62
:100B3C0002000020BB000020BE000020B0000020FE
:100B4C00B200002080B500AF0E4B1B88002B05D0E7
:100B5C000C4B1B88013B9AB20A4B1A80094B1B8821
:100B6C00002B0DD14FF40071074801F050FA4FF4EF
:100B7C008051054801F04BFA024B4FF4FA721A807F
:100B8C0000BF80BDBE000020000C014080B500AF4E
:100B9C00094B1A78094B1A70FFF762FE084B4FF499
:100BAC00FA721A80054B1B781A46064B1A80064BB4
:100BBC0004221A8000BF80BD01000020BC00002070
:100BCC00BE000020B0000020B200002080B500AFB5
:100BDC000E4B1B88002B05D00C4B1B88013B9AB28B
:100BEC000A4B1A80094B1B88002B0DD14FF48061E6
:100BFC00074801F00CFA4FF40051054801F007FAD0
:100C0C00024B4FF4FA721A8000BF80BDBE00002068
:100C1C00000C014080B582B000AF5F4B1B78072BF6
:100C2C007AD0072B00F3AD80052B02D0062B3CD0DD
:100C3C00A7E0FFF743FF5948FFF78FFD0346002B52
:100C4C0004D0554B06221A70FFF75CFF5448FFF78F
:100C5C0084FD0346002B1DD0524B1B780133DAB2B6
:100C6C00504B1A70504B1B780133FB714D4B1B785A
:100C7C00632B02D94B4AFB7913704A4B1B78FA79D8
:100C8C009A4202D9474AFB791370464B1B781A4695
:100C9C00464B1A804648FFF760FD0346002B72D086
:100CAC00FFF708FEFFF7EAFE6DE0FFF74BFF3B484E
:100CBC00FFF753FD0346002B04D0374B07221A7065
:100CCC00FFF764FF3648FFF748FD0346002B18D0AA
:100CDC00384B1B780133DAB2364B1A70354B1B7814
:100CEC00632B02D9334B01221A70324B1B78002B29
:100CFC0002D1304B01221A702E4B1B781A462B4B0B
:100D0C001A802B48FFF729FD0346002B3DD0FFF737
:100D1C0015FEFFF7F7FE38E0FFF758FF1F48FFF707
:100D2C001CFD0346002B02D01B4B00221A701C48E2
:100D3C00FFF713FD0346002B18D01F4B1B78013314
:100D4C00DAB21D4B1A701C4B1B78632B02D91A4B51
:100D5C0001221A70184B1B78002B02D1164B012262
:100D6C001A70154B1B781A46104B1A801048FFF757
:100D7C00F4FC0346002B0AD0FFF724FEFFF706FF16
:100D8C0005E000BF04E000BF02E000BF00E000BFD0
:100D9C0000BF0837BD4680BDB40000200400002011
:100DAC0014000020BA00002002000020B000002037
:100DBC0024000020BB000020BC00002080B586B0C1
:100DCC0000AF07F1080300221A605A609A60DA60DB
:100DDC00294B9B69284A43F004039361264B9B697A
:100DEC0003F004037B607B68234B9B69224A43F02E
:100DFC0008039361204B9B6903F008033B603B683D
:100E0C00002241F6FF711D4801F0E9F8002243F67B
:100E1C00FF711B4801F0E3F841F6FF73BB6001233F
:100E2C00FB6000233B6102237B6107F10803194639
:100E3C00124800F041FF43F6FF73BB600123FB60D7
:100E4C0000233B6102237B6107F1080319460C4820
:100E5C0000F032FF4FF46043BB600023FB600023C3
:100E6C003B6107F108031946044800F025FF00BF59
:100E7C001837BD4680BD00BF00100240000801407D
:100E8C00000C014080B400AF1A4B1B881A4AA2FB1D
:100E9C000323DB089BB2DAB2184B1A70154B1A8875
:100EAC00154BA3FB0213D9080B469B000B445B00AC
:100EBC00D31A9BB2DAB2114B5A70114B1B880E4AE3
:100ECC00A2FB0323DB089BB2DAB20E4B1A700C4B5D
:100EDC001A88094BA3FB0213D9080B469B000B4441
:100EEC005B00D31A9BB2DAB2064B5A7000BFBD46F8
:100EFC0080BC7047B0000020CDCCCCCCC000002012
:100F0C00B2000020C400002080B500AFFFF7BAFF8C
:100F1C00274B1B78083B032B46D801A252F823F031
:100F2C003D0F00085B0F0008790F0008970F0008B1
:100F3C00002000F00FF91F4B1B781A461E4B9B5CD0
:100F4C00184600F03DF81A4B09221A702DE00120CA
:100F5C0000F000F9174B5B781A46174B9B5C184650
:100F6C0000F02EF8124B0A221A701EE0022000F03C
:100F7C00F1F8124B1B781A460F4B9B5C184600F08D
:100F8C0075F80B4B0B221A700FE0032000F0E2F8FF
:100F9C000A4B5B781A46084B9B5C184600F066F8C7
:100FAC00034B08221A7000E000BF00BF80BD00BFD9
:100FBC0034000020C00000206C320008C400002067
:100FCC0080B582B000AF0346FB71FB7903F00103DF
:100FDC00DBB21A460121244801F001F8FB795B10C1
:100FEC00DBB203F00103DBB21A4602211E4800F00B
:100FFC00F6FFFB799B10DBB203F00103DBB21A4660
:10100C000421194800F0EBFFFB79DB10DBB203F095
:10101C000103DBB21A460821134800F0E0FFFB790C
:10102C001B11DBB203F00103DBB21A4610210E4890
:10103C0000F0D5FFFB795B11DBB203F00103DBB2EF
:10104C001A462021084800F0CAFFFB799B11DBB23D
:10105C0003F00103DBB21A464021034800F0BFFF46
:10106C0000BF0837BD4680BD0008014080B582B086
:10107C0000AF0346FB71FB7903F00103DBB21A46A8
:10108C000121244800F0ABFFFB795B10DBB203F0CD
:10109C000103DBB21A4602211E4800F0A0FFFB79C7
:1010AC009B10DBB203F00103DBB21A460421194892
:1010BC0000F095FFFB79DB10DBB203F00103DBB230
:1010CC001A460821134800F08AFFFB791B11DBB28A
:1010DC0003F00103DBB21A4610210E4800F07FFF2B
:1010EC00FB795B11DBB203F00103DBB21A46202162
:1010FC00084800F074FFFB799B11DBB203F001038D
:10110C00DBB21A464021034800F069FF00BF0837E4
:10111C00BD4680BD000C014080B500AF01224FF4EC
:10112C0080710B4800F05BFF01224FF400710848FE
:10113C0000F055FF01224FF48061054800F04FFF8D
:10114C0001224FF40061024800F049FF00BF80BD4E
:10115C000008014080B582B000AF0346FB71FB79FB
:10116C00032B77D801A252F823F000BF8911000895
:10117C00BF110008F51100082B120008FFF7CCFF77
:10118C0000224FF48071364800F029FF01224FF401
:10119C000071334800F023FF01224FF48061304886
:1011AC0000F01DFF01224FF400612D4800F017FFE5
:1011BC0051E0FFF7B1FF01224FF48071284800F095
:1011CC000EFF00224FF40071254800F008FF0122A9
:1011DC004FF48061224800F002FF01224FF40061BD
:1011EC001F4800F0FCFE36E0FFF796FF01224FF49B
:1011FC0080711B4800F0F3FE01224FF40071184877
:10120C0000F0EDFE00224FF48061154800F0E7FE7F
:10121C0001224FF40061124800F0E1FE1BE0FFF7E1
:10122C007BFF01224FF480710D4800F0D8FE0122A3
:10123C004FF400710A4800F0D2FE01224FF4806195
:10124C00074800F0CCFE00224FF40061044800F087
:10125C00C6FE00E000BF00BF0837BD4680BD00BF22
:10126C000008014080B500AF00F0B6FB00F026F896
:10127C00FFF7A4FD00F0B0FA00F0FAFA00F06AF8FB
:10128C000A4801F00BFB4FF4FA724FF47A710848DC
:10129C0000F09AF80A224FF47A71064800F094F89C
:1012AC00054B00221A7000F0BDF8FCE7D0000020BE
:1012BC008D170008A5170008B400002080B590B069
:1012CC0000AF07F1180328220021184601F030FF67
:1012DC003B1D00221A605A609A60DA601A61022380
:1012EC00BB610123BB621023FB6200237B6307F10C
:1012FC001803184600F0A4FE0346002B01D000F0A2
:10130C0022F80F237B600023BB600023FB600023CB
:10131C003B6100237B613B1D0021184601F012F953
:10132C000346002B01D000F00EF800BF4037BD463D
:10133C0080BD80B582B000AF786000F01BF800BFB4
:10134C000837BD4680BD80B400AF72B600BF00BF89
:10135C00FDE7000080B400AF044B00221A60044B80
:10136C0001221A7000BFBD4680BC7047C800002027
:10137C003500002080B400AF124B1B68002B1CD032
:10138C00104B1B681B68002B17D00E4B1B681B7C6B
:10139C00002B12D10B4B1B689B68002B04D0094B04
:1013AC001B689A68013A9A60064B1B689B68002B75
:1013BC0003D1044B1B6801221A7400BFBD4680BCCC
:1013CC00704700BFC800002080B588B000AFF8603F
:1013DC00B9607A60FB68002B01D100231BE0BB686D
:1013EC000F4AA2FB0323DB08FB617B680C4AA2FBC0
:1013FC000323DB08BB61BA69F969F86800F06AF885
:10140C0078617B69002B01D1002304E0786900F03E
:10141C009DF87B695B6818462037BD4680BD00BFD0
:10142C00CDCCCCCC80B584B000AF1C4B1B68002B52
:10143C002ED01A4B1B681B7C002B29D0174B1B681A
:10144C001B68002B03D0154B1B681B689847134B6C
:10145C001B68DB68FB60114B1B681B68BB600F4B88
:10146C001B687B600D4B1B685B690C4A13607868CA
:10147C0000F05DF8FB68002B0AD0FA6813469B005D
:10148C0013445B003B603A683968B868FFF79CFF0F
:10149C0030BF00BF1037BD4680BD00BFC800002064
:1014AC0080B483B000AF0A4B1B785A1CD1B2084AE7
:1014BC0011707B60064B1B78002B02D1044B012270
:1014CC001A707B6818460C37BD4680BC704700BF4D
:1014DC003500002080B586B000AFF860B9607A6046
:1014EC00182001F067FD03467B617B69002B19D046
:1014FC007B69FA681A607B69BA689A607B697A685A
:10150C00DA60FFF7CDFF02467B695A60BB68002B9F
:10151C000CBF01230023DBB21A467B691A747B696A
:10152C0000225A617B6918461837BD4680BD80B5CC
:10153C0082B000AF78607B68002B02D0786801F035
:10154C0041FD00BF0837BD4680BD000080B487B0A8
:10155C0000AF78607B68002B5CD0314B1B68002B94
:10156C0003D12F4A7B68136055E07B689A682C4B3B
:10157C001B689B689A4210D2294B1B6899687B6840
:10158C009A68274B1B688A1A9A60254B1A687B68E5
:10159C005A61234A7B6813603DE0214B1B687B61D9
:1015AC001F4B1B689B683B6126E07B695B699B68F2
:1015BC003A691344FB607B689B68FA689A4216D9B7
:1015CC007B689A683B69D21A7B689A607B689A68D8
:1015DC003B691A447B695B69F9688A1A9A607B6972
:1015EC005A697B685A617B697A685A6113E0FB68B7
:1015FC003B617B695B697B617B695B69002BD4D147
:10160C007B689A683B69D21A7B689A607B697A68B6
:10161C005A6100E000BF1C37BD4680BC704700BF5C
:10162C00C800002080B485B000AF154B9B69144AEC
:10163C0043F001039361124B9B6903F00103BB6000
:10164C00BB680F4BDB690E4A43F08053D3610C4BE4
:10165C00DB6903F080537B607B680A4B5B68FB6043
:10166C00FB6823F0E063FB60FB6843F08063FB6086
:10167C00044AFB68536000BF1437BD4680BC7047FA
:10168C00001002400000014080B400AF00BFFDE735
:10169C0080B400AF00BFFDE780B400AF00BFFDE732
:1016AC0080B400AF00BFFDE780B400AF00BFFDE722
:1016BC0080B400AF00BFBD4680BC704780B400AFA3
:1016CC0000BFBD4680BC704780B400AF00BFBD46B4
:1016DC0080BC704780B500AF00F0C4F900BF80BD7E
:1016EC0080B500AF024801F025F900BF80BD00BFF6
:1016FC00D000002080B500AF024801F01BF900BFFC
:10170C0080BD00BF1801002080B586B000AF7860A6
:10171C00144A154BD31A7B617B693B61134B1B68D5
:10172C00002B02D1114B124A1A60104B1A687B68BD
:10173C0013443A699A4207D201F012FD03460C2277
:10174C001A604FF0FF3309E0084B1B68FB60074B36
:10175C001A687B681344054A1360FB6818461837EF
:10176C00BD4680BD0028002000040000CC000020F5
:10177C00B002002080B400AF00BFBD4680BC7047F3
:10178C0080B500AF4FF48051024800F040FC00BF20
:10179C0080BD00BF0008014080B500AF0A48FEF7CD
:1017AC008BFF0A48FEF788FF0948FEF785FF094BB7
:1017BC001B78042B02D8FEF7C3FC01E0FFF72AFAD2
:1017CC00FFF7A2FB00BF80BD040000201400002026
:1017DC0024000020B400002080B586B000AF07F1D3
:1017EC00080300221A605A609A60DA603B460022B5
:1017FC001A605A601D4B4FF080421A601B4B41F629
:10180C003F725A60194B00229A60184B0922DA6019
:10181C00164B00221A61154B00229A61134800F0F6
:10182C00EDFF0346002B01D0FFF78DFD4FF48053E5
:10183C00BB6007F1080319460C4801F06BF903462D
:10184C00002B01D0FFF77FFD00233B6000237B6062
:10185C003B461946054801F043FB0346002B01D0DB
:10186C00FFF771FD00BF1837BD4680BDD0000020CA
:10187C0080B586B000AF07F1080300221A605A60E9
:10188C009A60DA603B4600221A605A601D4B1E4A71
:10189C001A601C4B41F63F725A601A4B00229A6038
:1018AC00184B4FF6FF72DA60164B00221A61154B7B
:1018BC0000229A61134800F0A1FF0346002B01D0CF
:1018CC00FFF741FD4FF48053BB6007F10803194645
:1018DC000C4801F01FF90346002B01D0FFF733FD34
:1018EC0000233B6000237B603B461946054801F012
:1018FC00F7FA0346002B01D0FFF725FD00BF183780
:10190C00BD4680BD180100200004004080B584B0A5
:10191C0000AF78607B681B68B3F1804F14D1194B12
:10192C00DB69184A43F00103D361164BDB6903F002
:10193C000103FB60FB68002200211C2000F085F9EC
:10194C001C2000F09EF918E07B681B680E4A93423D
:10195C0013D10C4BDB690B4A43F00203D361094BE7
:10196C00DB6903F00203BB60BB68002200211D2071
:10197C0000F06BF91D2000F084F900BF1037BD4654
:10198C0080BD00BF0010024000040040FFF7F2FED3
:10199C000B480C490C4A002302E0D458C4500433C1
:1019AC00C4188C42F9D3094A094C002301E0136096
:1019BC000432A242FBD301F0D9FBFFF753FC704772
:1019CC000000002094000020A432000894000020A5
:1019DC00AC020020FEE7000080B500AF084B1B688E
:1019EC00074A43F010031360032000F023F90F2083
:1019FC0000F008F8FFF716FE0023184680BD00BF64
:101A0C000020024080B582B000AF7860124B1A689B
:101A1C00124B1B7819464FF47A73B3FBF1F3B2FBFC
:101A2C00F3F3184600F03BF90346002B01D00123D9
:101A3C000EE07B680F2B0AD8002279684FF0FF303C
:101A4C0000F003F9064A7B681360002300E00123D1
:101A5C0018460837BD4680BD3800002040000020E5
:101A6C003C00002080B400AF054B1B781A46054B98
:101A7C001B681344034A136000BFBD4680BC70470B
:101A8C00400000206001002080B400AF024B1B68B6
:101A9C001846BD4680BC70476001002080B485B0FC
:101AAC0000AF78607B6803F00703FB600C4BDB68CE
:101ABC00BB60BA684FF6FF031340BB60FB681A02A9
:101ACC00BB68134343F0BF6343F40033BB60044A69
:101ADC00BB68D36000BF1437BD4680BC704700BFE5
:101AEC0000ED00E080B400AF044BDB681B0A03F090
:101AFC0007031846BD4680BC704700BF00ED00E0F0
:101B0C0080B483B000AF0346FB7197F90730002B0C
:101B1C000BDBFB7903F01F02064997F907305B09D1
:101B2C00012000FA02F241F8232000BF0C37BD4619
:101B3C0080BC704700E100E080B483B000AF034686
:101B4C003960FB7197F90730002B0ADB3B68DAB27E
:101B5C000C4997F907301201D2B20B4483F80023D9
:101B6C000AE03B68DAB20849FB7903F00F03043B47
:101B7C001201D2B20B441A7600BF0C37BD4680BCA2
:101B8C00704700BF00E100E000ED00E080B489B0D8
:101B9C0000AFF860B9607A60FB6803F00703FB6183
:101BAC00FB69C3F10703042B28BF0423BB61FB694A
:101BBC000433062B02D9FB69033B00E000237B6155
:101BCC004FF0FF32BB6902FA03F3DA43BB681A40E9
:101BDC007B699A404FF0FF317B6901FA03F3D943DB
:101BEC007B680B40134318462437BD4680BC7047B6
:101BFC0080B582B000AF78607B68013BB3F1807F29
:101C0C0001D301230FE00A4A7B68013B53600F218B
:101C1C004FF0FF30FFF790FF054B00229A60044B0A
:101C2C0007221A60002318460837BD4680BD00BF46
:101C3C0010E000E080B582B000AF78607868FFF704
:101C4C002DFF00BF0837BD4680BD80B586B000AF04
:101C5C000346B9607A60FB7300237B61FFF742FF98
:101C6C0078617A68B9687869FFF790FF024697F94E
:101C7C000F3011461846FFF75FFF00BF1837BD46FF
:101C8C0080BD80B582B000AF0346FB7197F9073079
:101C9C001846FFF735FF00BF0837BD4680BD80B53D
:101CAC0082B000AF78607868FFF7A2FF0346184651
:101CBC000837BD4680BD000080B48BB000AF7860A3
:101CCC00396000237B6200233B6261E101227B6A65
:101CDC0002FA03F3FB613B681B68FA691340BB61B2
:101CEC00BA69FB699A4240F050813B685B68974A3D
:101CFC0093425ED0954A934275D8954A934258D0F8
:101D0C00934A93426FD8934A934252D0914A93424A
:101D1C0069D8914A93424CD08F4A934263D88F4AE8
:101D2C00934246D08D4A93425DD8122B2AD8122B5F
:101D3C0059D801A252F823F0BF1D0008991D0008C4
:101D4C00AB1D0008ED1D0008F31D0008F31D000875
:101D5C00F31D0008F31D0008F31D0008F31D000817
:101D6C00F31D0008F31D0008F31D0008F31D000807
:101D7C00F31D0008F31D0008F31D0008A11D000849
:101D8C00B51D0008764A934213D02CE03B68DB6803
:101D9C003B6229E03B68DB6804333B6224E03B6830
:101DAC00DB6808333B621FE03B68DB680C333B624B
:101DBC001AE03B689B68002B02D104233B6213E0C2
:101DCC003B689B68012B05D108233B627B68FA6951
:101DDC001A6109E008233B627B68FA695A6103E0E7
:101DEC0000233B6200E000BFBB69FF2B01D87B687E
:101DFC0001E07B6804337B61BB69FF2B02D87B6AF3
:101E0C009B0002E07B6A083B9B003B617B691A6884
:101E1C000F213B6901FA03F3DB431A40396A3B6932
:101E2C0001FA03F31A437B691A603B685B6803F0A1
:101E3C008053002B00F0A9804A4B9B69494A43F020
:101E4C0001039361474B9B6903F00103BB60BB68C3
:101E5C00454A7B6A9B08023352F82330FB607B6A4D
:101E6C0003F003039B000F2202FA03F3DB43FA682F
:101E7C001340FB607B683D4A93420DD07B683C4A23
:101E8C00934207D07B683B4A934201D1022304E082
:101E9C00032302E0012300E000237A6A02F003022C
:101EAC0092009340FA681343FB602F497B6A9B08AE
:101EBC000233FA6841F823203B685B6803F4801313
:101ECC00002B06D02C4B9A682B49BB6913438B60B3
:101EDC0006E0294B9A68BB69DB43274913408B60AA
:101EEC003B685B6803F40013002B06D0224BDA68C6
:101EFC002149BB691343CB6006E01F4BDA68BB6911
:101F0C00DB431D491340CB603B685B6803F4003333
:101F1C00002B06D0184B5A681749BB6913434B600A
:101F2C0006E0154B5A68BB69DB43134913404B6001
:101F3C003B685B6803F48033002B1FD00E4B1A6890
:101F4C000D49BB6913430B601FE000BF000032104A
:101F5C0000003110000022100000211000001210AF
:101F6C000000111000100240000001400008014068
:101F7C00000C014000100140000401400B4B1A689A
:101F8C00BB69DB43094913400B607B6A01337B62FD
:101F9C003B681A687B6A22FA03F3002B7FF496AE37
:101FAC0000BF00BF2C37BD4680BC70470004014009
:101FBC0080B485B000AF78600B467B807B689A68F4
:101FCC007B881340002B02D00123FB7301E000231C
:101FDC00FB73FB7B18461437BD4680BC704780B43E
:101FEC0083B000AF78600B467B8013467B707B78A8
:101FFC00002B03D07A887B681A6103E07B881A0473
:10200C007B681A6100BF0C37BD4680BC704780B43A
:10201C0085B000AF78600B467B807B68DB68FB602B
:10202C007A88FB6813401A04FB68D9437B880B4001
:10203C001A437B681A6100BF1437BD4680BC7047D9
:10204C0080B586B000AF78607B68002B01D101238E
:10205C0072E27B681B6803F00103002B00F08780A1
:10206C00924B5B6803F00C03042B0CD08F4B5B681A
:10207C0003F00C03082B12D18C4B5B6803F48033F8
:10208C00B3F5803F0BD1894B1B6803F40033002B55
:10209C006CD07B685B68002B68D101234CE27B68B9
:1020AC005B68B3F5803F06D1804B1B687F4A43F4D5
:1020BC00803313602EE07B685B68002B0CD17B4B6C
:1020CC001B687A4A23F480331360784B1B68774A79
:1020DC0023F4802313601DE07B685B68B3F5A02FAD
:1020EC000CD1724B1B68714A43F4802313606F4B05
:1020FC001B686E4A43F4803313600BE06B4B1B6818
:10210C006A4A23F480331360684B1B68674A23F4D4
:10211C00802313607B685B68002B13D0FFF7B4FC43
:10212C00386108E0FFF7B0FC02463B69D31A642B18
:10213C0001D9032300E25D4B1B6803F40033002B31
:10214C00F0D014E0FFF7A0FC386108E0FFF79CFC2E
:10215C0002463B69D31A642B01D90323ECE1534BA0
:10216C001B6803F40033002BF0D100E000BF7B6848
:10217C001B6803F00203002B63D04C4B5B6803F02D
:10218C000C03002B0BD0494B5B6803F00C03082BA2
:10219C001CD1464B5B6803F48033002B16D1434BA8
:1021AC001B6803F00203002B05D07B681B69012B15
:1021BC0001D00123C0E13D4B1B6823F0F8027B6882
:1021CC005B69DB00394913430B603AE07B681B69A0
:1021DC00002B20D0364B01221A60FFF755FC3861DA
:1021EC0008E0FFF751FC02463B69D31A022B01D9D8
:1021FC000323A1E12D4B1B6803F00203002BF0D04D
:10220C002A4B1B6823F0F8027B685B69DB002749CB
:10221C0013430B6015E0264B00221A60FFF734FCC9
:10222C00386108E0FFF730FC02463B69D31A022BF9
:10223C0001D9032380E11D4B1B6803F00203002B23
:10224C00F0D17B681B6803F00803002B3AD07B6845
:10225C009B69002B19D0174B01221A60FFF714FC55
:10226C00386108E0FFF710FC02463B69D31A022BD9
:10227C0001D9032360E10D4B5B6A03F00203002BD1
:10228C00F0D0012000F09CFA1CE00A4B00221A60EE
:10229C00FFF7FAFB38610FE0FFF7F6FB02463B69EC
:1022AC00D31A022B08D9032346E100BF00100240C9
:1022BC000000424280044242924B5B6A03F00203EC
:1022CC00002BE9D17B681B6803F00403002B00F0A2
:1022DC00A6800023FB758B4BDB6903F08053002B2E
:1022EC000DD1884BDB69874A43F08053D361854B12
:1022FC00DB6903F08053BB60BB680123FB75824B29
:10230C001B6803F48073002B18D17F4B1B687E4A2B
:10231C0043F480731360FFF7B7FB386108E0FFF7F5
:10232C00B3FB02463B69D31A642B01D9032303E1A7
:10233C00754B1B6803F48073002BF0D07B68DB6853
:10234C00012B06D16F4B1B6A6E4A43F001031362DB
:10235C002DE07B68DB68002B0CD16A4B1B6A694A49
:10236C0023F001031362674B1B6A664A23F00403D4
:10237C0013621CE07B68DB68052B0CD1614B1B6A7C
:10238C00604A43F0040313625E4B1B6A5D4A43F0E0
:10239C00010313620BE05B4B1B6A5A4A23F00103E7
:1023AC001362584B1B6A574A23F0040313627B6871
:1023BC00DB68002B15D0FFF767FB38610AE0FFF7ED
:1023CC0063FB02463B69D31A41F28832934201D92E
:1023DC000323B1E04B4B1B6A03F00203002BEED03E
:1023EC0014E0FFF751FB38610AE0FFF74DFB0246A2
:1023FC003B69D31A41F28832934201D903239BE003
:10240C00404B1B6A03F00203002BEED1FB7D012B2A
:10241C0005D13C4BDB693B4A23F08053D3617B688D
:10242C00DB69002B00F08780364B5B6803F00C03F4
:10243C00082B61D07B68DB69022B46D1334B002221
:10244C001A60FFF721FB386108E0FFF71DFB02461D
:10245C003B69D31A022B01D903236DE0294B1B686E
:10246C0003F00073002BF0D17B681B6AB3F5803F3F
:10247C0008D1244B5B6823F400327B689B682149AC
:10248C0013434B601F4B5B6823F474127B68196A0F
:10249C007B685B6A0B431B4913434B601B4B01224C
:1024AC001A60FFF7F1FA386108E0FFF7EDFA02461F
:1024BC003B69D31A022B01D903233DE0114B1B6856
:1024CC0003F00073002BF0D035E0104B00221A60A3
:1024DC00FFF7DAFA386108E0FFF7D6FA02463B69F3
:1024EC00D31A022B01D9032326E0064B1B6803F0F9
:1024FC000073002BF0D11EE07B68DB69012B07D148
:10250C00012319E0001002400070004060004242BC
:10251C000B4B5B68FB60FB6803F480327B681B6AC7
:10252C009A4206D1FB6803F470127B685B6A9A428C
:10253C0001D0012300E0002318461837BD4680BDAA
:10254C000010024080B584B000AF786039607B68C1
:10255C00002B01D10123D0E06A4B1B6803F0070369
:10256C003A689A4210D9674B1B6823F007026549F9
:10257C003B6813430B60634B1B6803F007033A681B
:10258C009A4201D00123B8E07B681B6803F0020378
:10259C00002B20D07B681B6803F00403002B05D0B4
:1025AC00594B5B68584A43F4E06353607B681B6883
:1025BC0003F00803002B05D0534B5B68524A43F4DD
:1025CC0060535360504B5B6823F0F0027B689B6850
:1025DC004D4913434B607B681B6803F00103002BD0
:1025EC0040D07B685B68012B07D1474B1B6803F419
:1025FC000033002B15D101237FE07B685B68022B35
:10260C0007D1414B1B6803F00073002B09D1012348
:10261C0073E03D4B1B6803F00203002B01D1012337
:10262C006BE0394B5B6823F003027B685B683649CF
:10263C0013434B60FFF728FAF8600AE0FFF724FA1F
:10264C000246FB68D31A41F28832934201D9032324
:10265C0053E02D4B5B6803F00C027B685B689B00BE
:10266C009A42EBD1274B1B6803F007033A689A4256
:10267C0010D2244B1B6823F0070222493B681343FA
:10268C000B60204B1B6803F007033A689A4201D099
:10269C00012332E07B681B6803F00403002B08D095
:1026AC00194B5B6823F4E0627B68DB6816491343C3
:1026BC004B607B681B6803F00803002B09D0124B9E
:1026CC005B6823F460527B681B69DB000E49134383
:1026DC004B6000F021F802460B4B5B681B0903F0C2
:1026EC000F030A49CB5C22FA03F3094A1360094B26
:1026FC001B681846FFF786F9002318461037BD46AD
:10270C0080BD00BF0020024000100240783200085B
:10271C00380000203C00002080B487B000AF0023BC
:10272C00FB600023BB6000237B6100237B600023E4
:10273C003B611E4B5B68FB60FB6803F00C03042BD6
:10274C0002D0082B03D027E0194B3B6127E0FB6834
:10275C009B0C03F00F03174AD35C7B60FB6803F4FC
:10276C008033002B10D0114B5B685B0C03F0010322
:10277C00114AD35CBB607B680D4A03FB02F2BB6859
:10278C00B2FBF3F37B6104E07B680C4A02FB03F3BE
:10279C007B617B693B6102E0054B3B6100BF3B69A0
:1027AC0018461C37BD4680BC704700BF0010024065
:1027BC0000127A00883200089832000800093D00A7
:1027CC0080B485B000AF78600A4B1B680A4AA2FB44
:1027DC0003235B0A7A6802FB03F3FB6000BFFB6810
:1027EC005A1EFA60002BF9D100BF00BF1437BD464A
:1027FC0080BC704738000020D34D621080B582B089
:10280C0000AF78607B68002B01D1012341E07B682D
:10281C0093F83D30DBB2002B06D17B68002283F8A5
:10282C003C207868FFF772F87B68022283F83D2021
:10283C007B681A687B6804331946104600F056FA18
:10284C007B68012283F846207B68012283F83E20B6
:10285C007B68012283F83F207B68012283F84020AB
:10286C007B68012283F841207B68012283F8422097
:10287C007B68012283F843207B68012283F8442083
:10288C007B68012283F845207B68012283F83D2078
:10289C00002318460837BD4680BD000080B485B0C3
:1028AC0000AF78607B6893F83D30DBB2012B01D030
:1028BC00012335E07B68022283F83D207B681B688E
:1028CC00DA687B681B6842F00102DA607B681B687F
:1028DC00164A934209D07B681B68B3F1804F04D031
:1028EC007B681B68124A934211D17B681B689B68FA
:1028FC0003F00703FB60FB68062B10D07B681B689A
:10290C001A687B681B6842F001021A6007E07B685A
:10291C001B681A687B681B6842F001021A6000236E
:10292C0018461437BD4680BC704700BF002C0140D0
:10293C000004004080B584B000AF78607B681B68F1
:10294C00DB68FB607B681B681B69BB60BB6803F0C2
:10295C000203002B20D0FB6803F00203002B1BD0DA
:10296C007B681B686FF002021A617B6801221A7780
:10297C007B681B689B6903F00303002B03D078680A
:10298C0000F098F905E0786800F08BF9786800F0B1
:10299C009AF97B6800221A77BB6803F00403002BBA
:1029AC0020D0FB6803F00403002B1BD07B681B6852
:1029BC006FF004021A617B6802221A777B681B682D
:1029CC009B6903F44073002B03D0786800F072F914
:1029DC0005E0786800F065F9786800F074F97B68B8
:1029EC0000221A77BB6803F00803002B20D0FB6889
:1029FC0003F00803002B1BD07B681B686FF00802E8
:102A0C001A617B6804221A777B681B68DB6903F008
:102A1C000303002B03D0786800F04CF905E07868CC
:102A2C0000F03FF9786800F04EF97B6800221A77C5
:102A3C00BB6803F01003002B20D0FB6803F01003DD
:102A4C00002B1BD07B681B686FF010021A617B682F
:102A5C0008221A777B681B68DB6903F44073002B30
:102A6C0003D0786800F026F905E0786800F019F9D1
:102A7C00786800F028F97B6800221A77BB6803F0AD
:102A8C000103002B0CD0FB6803F00103002B07D0D3
:102A9C007B681B686FF001021A617868FEF749FCCD
:102AAC00BB6803F08003002B0CD0FB6803F08003A1
:102ABC00002B07D07B681B686FF080021A61786866
:102ACC0000F06FFABB6803F04003002B0CD0FB68DE
:102ADC0003F04003002B07D07B681B686FF04002AB
:102AEC001A61786800F0F8F8BB6803F02003002B3B
:102AFC000CD0FB6803F02003002B07D07B681B680D
:102B0C006FF020021A61786800F042FA00BF1037AB
:102B1C00BD4680BD80B584B000AF786039600023BD
:102B2C00FB737B6893F83C30012B01D10223B4E09A
:102B3C007B68012283F83C207B68022283F83D20CD
:102B4C007B681B689B68BB60BB6823F07703BB602A
:102B5C00BB6823F47F43BB607B681B68BA689A60D0
:102B6C003B681B68B3F5005F3ED0B3F5005F00F225
:102B7C008780B3F5805F00F08680B3F5805F7FD8E7
:102B8C00702B1AD0702B7BD8602B50D0602B77D841
:102B9C00502B3CD0502B73D8402B58D0402B6FD897
:102BAC00302B64D0302B6BD8202B60D0202B67D8E7
:102BBC00002B5CD0102B5AD062E07B6818683B6805
:102BCC0099683B685A683B68DB6800F06AF97B6877
:102BDC001B689B68BB60BB6843F07703BB607B687A
:102BEC001B68BA689A604FE07B6818683B68996804
:102BFC003B685A683B68DB6800F053F97B681B68DC
:102C0C009A687B681B6842F480429A603CE07B685F
:102C1C0018683B6859683B68DB681A4600F0CAF8CC
:102C2C007B681B685021184600F021F92CE07B686A
:102C3C0018683B6859683B68DB681A4600F0E8F88E
:102C4C007B681B686021184600F011F91CE07B685A
:102C5C0018683B6859683B68DB681A4600F0AAF8AC
:102C6C007B681B684021184600F001F90CE07B687A
:102C7C001A683B681B681946104600F0F8F803E028
:102C8C000123FB7300E000BF7B68012283F83D2029
:102C9C007B68002283F83C20FB7B18461037BD462E
:102CAC0080BD80B483B000AF786000BF0C37BD46E8
:102CBC0080BC704780B483B000AF786000BF0C3725
:102CCC00BD4680BC704780B483B000AF786000BF55
:102CDC000C37BD4680BC704780B483B000AF7860C1
:102CEC0000BF0C37BD4680BC7047000080B485B077
:102CFC0000AF786039607B681B68FB607B682B4A8F
:102D0C00934207D07B68B3F1804F03D07B68284A8D
:102D1C00934208D1FB6823F07003FB603B685B684F
:102D2C00FA681343FB607B68204A934207D07B68A8
:102D3C00B3F1804F03D07B681D4A934208D1FB68E6
:102D4C0023F44073FB603B68DB68FA681343FB6059
:102D5C00FB6823F080023B685B691343FB607B6874
:102D6C00FA681A603B689A687B68DA623B681A6892
:102D7C007B689A627B680D4A934203D13B681A695F
:102D8C007B681A637B6801225A617B681B6903F0BC
:102D9C000103002B05D07B681B6923F001027B68C3
:102DAC001A6100BF1437BD4680BC7047002C01402F
:102DBC000004004080B487B000AFF860B9607A605E
:102DCC00FB681B6A7B61FB681B6A23F00102FB68D2
:102DDC001A62FB689B693B613B6923F0F0033B6122
:102DEC007B681B013A6913433B617B6923F00A033F
:102DFC007B617A69BB6813437B61FB683A699A61B2
:102E0C00FB687A691A6200BF1C37BD4680BC7047EC
:102E1C0080B487B000AFF860B9607A60FB681B6A59
:102E2C007B61FB681B6A23F01002FB681A62FB686B
:102E3C009B693B613B6923F470433B617B681B03DB
:102E4C003A6913433B617B6923F0A0037B61BB6848
:102E5C001B017A6913437B61FB683A699A61FB68D1
:102E6C007A691A6200BF1C37BD4680BC704780B4BB
:102E7C0085B000AF786039607B689B68FB60FB684D
:102E8C0023F07003FB603A68FB68134343F00703BD
:102E9C00FB607B68FA689A6000BF1437BD4680BC43
:102EAC00704780B487B000AFF860B9607A603B605F
:102EBC00FB689B687B617B6923F47F437B613B6888
:102ECC001A027B681A43BB6813437A6913437B610C
:102EDC00FB687A699A6000BF1C37BD4680BC70479E
:102EEC0080B485B000AF786039607B6893F83C3073
:102EFC00012B01D1022341E07B68012283F83C20A5
:102F0C007B68022283F83D207B681B685B68FB6052
:102F1C007B681B689B68BB60FB6823F07003FB60DD
:102F2C003B681B68FA681343FB607B681B68FA6894
:102F3C005A607B681B68144A934209D07B681B68F3
:102F4C00B3F1804F04D07B681B68104A93420CD1BC
:102F5C00BB6823F08003BB603B685B68BA681343B3
:102F6C00BB607B681B68BA689A607B68012283F837
:102F7C003D207B68002283F83C2000231846143740
:102F8C00BD4680BC704700BF002C014000040040CF
:102F9C0080B483B000AF786000BF0C37BD4680BCF6
:102FAC00704780B483B000AF786000BF0C37BD466B
:102FBC0080BC7047024B0146186800F02DB800BF6A
:102FCC0044000020024B0146186800F0F5B800BF21
:102FDC004400002070B50F4E0C463168054611B9FF
:102FEC0000F0AEF830602146284600F0A9F8431CEA
:102FFC0003D14FF0FF34204670BDC41C24F00304F1
:10300C00A042F8D0211A284600F09AF80130F2D1EB
:10301C00EFE700BF640100202DE9F843CD1C25F03B
:10302C00030508350C2D38BF0C25002D064601DB99
:10303C00A94204D90C2333600020BDE8F883DFF8E3
:10304C00D48000F069F8D8F800301C4644BB2946FF
:10305C003046FFF7BFFF431C044658D1D8F8004058
:10306C002746002F43D1002C4BD0236839463046DD
:10307C0004EB030900F064F8814542D12168304625
:10308C006D1A2946FFF7A6FF01303AD023682B446E
:10309C002360D8F800305A6862BBC8F800700FE0A3
:1030AC002268521B20D40B2A17D96119A342256020
:1030BC0018BF5960636808BFC8F8001062514B60B4
:1030CC00304600F02FF804F10B00231D20F0070010
:1030DC00C21A1CBF1B1AA350AFE76268A3420CBFF5
:1030EC00C8F800205A60EBE723466468AEE73C461C
:1030FC007F68B6E71A465B68A342FBD10023536096
:10310C00DEE70C233046336000F00CF894E70560E2
:10311C00D6E700BF68010020014800F04BB800BFA3
:10312C00A8020020014800F046B800BFA802002009
:10313C0003460244934200D1704703F8011BF9E7A0
:10314C0038B50023054D044608462B60FEF7DCFA23
:10315C00431C02D12B6803B1236038BDA4020020AC
:10316C00014B1868704700BF4400002070B5002662
:10317C000C4D0D4C641BA410A64209D100F064F850
:10318C0000260A4D0A4C641BA410A64205D170BD42
:10319C0055F8043B98470136EEE755F8043B984741
:1031AC000136F2E79C3200089C3200089C32000881
:1031BC00A03200087047704738B50546002940D04A
:1031CC0051F8043C0C1F002BB8BFE418FFF7A4FF08
:1031DC001C4A136833B9636014602846BDE8384054
:1031EC00FFF7A0BFA34208D9206821188B4201BF6A
:1031FC0019685B6809182160EDE71A465B680BB12A
:10320C00A342FAD911685018A0420BD1206801448E
:10321C00501883421160E0D118685B680844106054
:10322C005360DAE702D90C232B60D6E7206821180B
:10323C008B4201BF19685B68091821606360546098
:10324C00CBE738BD68010020F8B500BFF8BC08BC5E
:10325C009E467047F8B500BFF8BC08BC9E46704748
:10326C003F065B4F666D7D077F6F0000000000001E
:10327C00000000000102030406070809020304050C
:10328C00060708090A0B0C0D0E0F101001020000A6
:04329C0031010008F4
:0432A0000D01000814
:1032A4000A07030001010101960000000008014023
:1032B4000020000001010101960000000008014007
:1032C40000400000010101019600000000080140D7
:1032D400008000000801000000127A0010000000C5
:1032E4000100000048000020000000006C010020E4
:1032F400D40100203C020020000000000000000077
:1033040000000000000000000000000000000000B9
:1033140000000000000000000000000000000000A9
:103324000000000000000000000000000000000099
:043334000000000095
:04000005080019993D
:00000001FF
